{
  "contractName": "MealToken",
  "abi": [
    {
      "inputs": [
        {
          "internalType": "uint256",
          "name": "totalSupply",
          "type": "uint256"
        }
      ],
      "stateMutability": "nonpayable",
      "type": "constructor"
    },
    {
      "anonymous": false,
      "inputs": [
        {
          "indexed": true,
          "internalType": "address",
          "name": "owner",
          "type": "address"
        },
        {
          "indexed": true,
          "internalType": "address",
          "name": "spender",
          "type": "address"
        },
        {
          "indexed": false,
          "internalType": "uint256",
          "name": "value",
          "type": "uint256"
        }
      ],
      "name": "Approval",
      "type": "event"
    },
    {
      "anonymous": false,
      "inputs": [
        {
          "indexed": true,
          "internalType": "address",
          "name": "previousOwner",
          "type": "address"
        },
        {
          "indexed": true,
          "internalType": "address",
          "name": "newOwner",
          "type": "address"
        }
      ],
      "name": "OwnershipTransferred",
      "type": "event"
    },
    {
      "anonymous": false,
      "inputs": [
        {
          "indexed": true,
          "internalType": "address",
          "name": "from",
          "type": "address"
        },
        {
          "indexed": true,
          "internalType": "address",
          "name": "to",
          "type": "address"
        },
        {
          "indexed": false,
          "internalType": "uint256",
          "name": "value",
          "type": "uint256"
        }
      ],
      "name": "Transfer",
      "type": "event"
    },
    {
      "inputs": [
        {
          "internalType": "address",
          "name": "owner",
          "type": "address"
        },
        {
          "internalType": "address",
          "name": "spender",
          "type": "address"
        }
      ],
      "name": "allowance",
      "outputs": [
        {
          "internalType": "uint256",
          "name": "",
          "type": "uint256"
        }
      ],
      "stateMutability": "view",
      "type": "function",
      "constant": true
    },
    {
      "inputs": [
        {
          "internalType": "address",
          "name": "spender",
          "type": "address"
        },
        {
          "internalType": "uint256",
          "name": "amount",
          "type": "uint256"
        }
      ],
      "name": "approve",
      "outputs": [
        {
          "internalType": "bool",
          "name": "",
          "type": "bool"
        }
      ],
      "stateMutability": "nonpayable",
      "type": "function"
    },
    {
      "inputs": [
        {
          "internalType": "address",
          "name": "account",
          "type": "address"
        }
      ],
      "name": "balanceOf",
      "outputs": [
        {
          "internalType": "uint256",
          "name": "",
          "type": "uint256"
        }
      ],
      "stateMutability": "view",
      "type": "function",
      "constant": true
    },
    {
      "inputs": [],
      "name": "decimals",
      "outputs": [
        {
          "internalType": "uint8",
          "name": "",
          "type": "uint8"
        }
      ],
      "stateMutability": "view",
      "type": "function",
      "constant": true
    },
    {
      "inputs": [
        {
          "internalType": "address",
          "name": "spender",
          "type": "address"
        },
        {
          "internalType": "uint256",
          "name": "subtractedValue",
          "type": "uint256"
        }
      ],
      "name": "decreaseAllowance",
      "outputs": [
        {
          "internalType": "bool",
          "name": "",
          "type": "bool"
        }
      ],
      "stateMutability": "nonpayable",
      "type": "function"
    },
    {
      "inputs": [
        {
          "internalType": "address",
          "name": "spender",
          "type": "address"
        },
        {
          "internalType": "uint256",
          "name": "addedValue",
          "type": "uint256"
        }
      ],
      "name": "increaseAllowance",
      "outputs": [
        {
          "internalType": "bool",
          "name": "",
          "type": "bool"
        }
      ],
      "stateMutability": "nonpayable",
      "type": "function"
    },
    {
      "inputs": [],
      "name": "name",
      "outputs": [
        {
          "internalType": "string",
          "name": "",
          "type": "string"
        }
      ],
      "stateMutability": "view",
      "type": "function",
      "constant": true
    },
    {
      "inputs": [],
      "name": "owner",
      "outputs": [
        {
          "internalType": "address",
          "name": "",
          "type": "address"
        }
      ],
      "stateMutability": "view",
      "type": "function",
      "constant": true
    },
    {
      "inputs": [],
      "name": "renounceOwnership",
      "outputs": [],
      "stateMutability": "nonpayable",
      "type": "function"
    },
    {
      "inputs": [],
      "name": "symbol",
      "outputs": [
        {
          "internalType": "string",
          "name": "",
          "type": "string"
        }
      ],
      "stateMutability": "view",
      "type": "function",
      "constant": true
    },
    {
      "inputs": [],
      "name": "totalSupply",
      "outputs": [
        {
          "internalType": "uint256",
          "name": "",
          "type": "uint256"
        }
      ],
      "stateMutability": "view",
      "type": "function",
      "constant": true
    },
    {
      "inputs": [
        {
          "internalType": "address",
          "name": "to",
          "type": "address"
        },
        {
          "internalType": "uint256",
          "name": "amount",
          "type": "uint256"
        }
      ],
      "name": "transfer",
      "outputs": [
        {
          "internalType": "bool",
          "name": "",
          "type": "bool"
        }
      ],
      "stateMutability": "nonpayable",
      "type": "function"
    },
    {
      "inputs": [
        {
          "internalType": "address",
          "name": "from",
          "type": "address"
        },
        {
          "internalType": "address",
          "name": "to",
          "type": "address"
        },
        {
          "internalType": "uint256",
          "name": "amount",
          "type": "uint256"
        }
      ],
      "name": "transferFrom",
      "outputs": [
        {
          "internalType": "bool",
          "name": "",
          "type": "bool"
        }
      ],
      "stateMutability": "nonpayable",
      "type": "function"
    },
    {
      "inputs": [
        {
          "internalType": "address",
          "name": "newOwner",
          "type": "address"
        }
      ],
      "name": "transferOwnership",
      "outputs": [],
      "stateMutability": "nonpayable",
      "type": "function"
    },
    {
      "inputs": [
        {
          "internalType": "address",
          "name": "account",
          "type": "address"
        }
      ],
      "name": "isAdmin",
      "outputs": [
        {
          "internalType": "bool",
          "name": "",
          "type": "bool"
        }
      ],
      "stateMutability": "view",
      "type": "function",
      "constant": true
    },
    {
      "inputs": [
        {
          "internalType": "address",
          "name": "newAdmin",
          "type": "address"
        }
      ],
      "name": "addAdmin",
      "outputs": [],
      "stateMutability": "nonpayable",
      "type": "function"
    },
    {
      "inputs": [
        {
          "internalType": "address",
          "name": "adminToRemove",
          "type": "address"
        }
      ],
      "name": "removeAdmin",
      "outputs": [],
      "stateMutability": "nonpayable",
      "type": "function"
    },
    {
      "inputs": [
        {
          "internalType": "address",
          "name": "account",
          "type": "address"
        },
        {
          "internalType": "uint256",
          "name": "amount",
          "type": "uint256"
        }
      ],
      "name": "mint",
      "outputs": [],
      "stateMutability": "nonpayable",
      "type": "function"
    },
    {
      "inputs": [
        {
          "internalType": "address",
          "name": "account",
          "type": "address"
        },
        {
          "internalType": "uint256",
          "name": "amount",
          "type": "uint256"
        }
      ],
      "name": "burn",
      "outputs": [],
      "stateMutability": "nonpayable",
      "type": "function"
    }
  ],
  "bytecode": "0x60806040523480156200001157600080fd5b50604051620027c1380380620027c18339818101604052810190620000379190620003df565b6040518060400160405280600581526020017f4d65616c730000000000000000000000000000000000000000000000000000008152506040518060400160405280600481526020017f4d45414c000000000000000000000000000000000000000000000000000000008152508160039081620000b4919062000681565b508060049081620000c6919062000681565b505050620000e9620000dd6200015a60201b60201c565b6200016260201b60201c565b620000fb33826200022860201b60201c565b6001600660003373ffffffffffffffffffffffffffffffffffffffff1673ffffffffffffffffffffffffffffffffffffffff16815260200190815260200160002060006101000a81548160ff0219169083151502179055505062000883565b600033905090565b6000600560009054906101000a900473ffffffffffffffffffffffffffffffffffffffff16905081600560006101000a81548173ffffffffffffffffffffffffffffffffffffffff021916908373ffffffffffffffffffffffffffffffffffffffff1602179055508173ffffffffffffffffffffffffffffffffffffffff168173ffffffffffffffffffffffffffffffffffffffff167f8be0079c531659141344cd1fd0a4f28419497f9722a3daafe3b4186f6b6457e060405160405180910390a35050565b600073ffffffffffffffffffffffffffffffffffffffff168273ffffffffffffffffffffffffffffffffffffffff16036200029a576040517f08c379a00000000000000000000000000000000000000000000000000000000081526004016200029190620007c9565b60405180910390fd5b620002ae600083836200039560201b60201c565b8060026000828254620002c291906200081a565b92505081905550806000808473ffffffffffffffffffffffffffffffffffffffff1673ffffffffffffffffffffffffffffffffffffffff168152602001908152602001600020600082825401925050819055508173ffffffffffffffffffffffffffffffffffffffff16600073ffffffffffffffffffffffffffffffffffffffff167fddf252ad1be2c89b69c2b068fc378daa952ba7f163c4a11628f55a4df523b3ef8360405162000375919062000866565b60405180910390a362000391600083836200039a60201b60201c565b5050565b505050565b505050565b600080fd5b6000819050919050565b620003b981620003a4565b8114620003c557600080fd5b50565b600081519050620003d981620003ae565b92915050565b600060208284031215620003f857620003f76200039f565b5b60006200040884828501620003c8565b91505092915050565b600081519050919050565b7f4e487b7100000000000000000000000000000000000000000000000000000000600052604160045260246000fd5b7f4e487b7100000000000000000000000000000000000000000000000000000000600052602260045260246000fd5b600060028204905060018216806200049357607f821691505b602082108103620004a957620004a86200044b565b5b50919050565b60008190508160005260206000209050919050565b60006020601f8301049050919050565b600082821b905092915050565b600060088302620005137fffffffffffffffffffffffffffffffffffffffffffffffffffffffffffffffff82620004d4565b6200051f8683620004d4565b95508019841693508086168417925050509392505050565b6000819050919050565b6000620005626200055c6200055684620003a4565b62000537565b620003a4565b9050919050565b6000819050919050565b6200057e8362000541565b620005966200058d8262000569565b848454620004e1565b825550505050565b600090565b620005ad6200059e565b620005ba81848462000573565b505050565b5b81811015620005e257620005d6600082620005a3565b600181019050620005c0565b5050565b601f8211156200063157620005fb81620004af565b6200060684620004c4565b8101602085101562000616578190505b6200062e6200062585620004c4565b830182620005bf565b50505b505050565b600082821c905092915050565b6000620006566000198460080262000636565b1980831691505092915050565b600062000671838362000643565b9150826002028217905092915050565b6200068c8262000411565b67ffffffffffffffff811115620006a857620006a76200041c565b5b620006b482546200047a565b620006c1828285620005e6565b600060209050601f831160018114620006f95760008415620006e4578287015190505b620006f0858262000663565b86555062000760565b601f1984166200070986620004af565b60005b8281101562000733578489015182556001820191506020850194506020810190506200070c565b868310156200075357848901516200074f601f89168262000643565b8355505b6001600288020188555050505b505050505050565b600082825260208201905092915050565b7f45524332303a206d696e7420746f20746865207a65726f206164647265737300600082015250565b6000620007b1601f8362000768565b9150620007be8262000779565b602082019050919050565b60006020820190508181036000830152620007e481620007a2565b9050919050565b7f4e487b7100000000000000000000000000000000000000000000000000000000600052601160045260246000fd5b60006200082782620003a4565b91506200083483620003a4565b92508282019050808211156200084f576200084e620007eb565b5b92915050565b6200086081620003a4565b82525050565b60006020820190506200087d600083018462000855565b92915050565b611f2e80620008936000396000f3fe608060405234801561001057600080fd5b50600436106101215760003560e01c806370480275116100ad5780639dc29fac116100715780639dc29fac1461030a578063a457c2d714610326578063a9059cbb14610356578063dd62ed3e14610386578063f2fde38b146103b657610121565b8063704802751461027857806370a0823114610294578063715018a6146102c45780638da5cb5b146102ce57806395d89b41146102ec57610121565b806323b872dd116100f457806323b872dd146101ae57806324d7806c146101de578063313ce5671461020e578063395093511461022c57806340c10f191461025c57610121565b806306fdde0314610126578063095ea7b3146101445780631785f53c1461017457806318160ddd14610190575b600080fd5b61012e6103d2565b60405161013b91906113e9565b60405180910390f35b61015e600480360381019061015991906114a4565b610464565b60405161016b91906114ff565b60405180910390f35b61018e6004803603810190610189919061151a565b610487565b005b610198610532565b6040516101a59190611556565b60405180910390f35b6101c860048036038101906101c39190611571565b61053c565b6040516101d591906114ff565b60405180910390f35b6101f860048036038101906101f3919061151a565b61056b565b60405161020591906114ff565b60405180910390f35b6102166105c1565b60405161022391906115e0565b60405180910390f35b610246600480360381019061024191906114a4565b6105ca565b60405161025391906114ff565b60405180910390f35b610276600480360381019061027191906114a4565b610601565b005b610292600480360381019061028d919061151a565b610657565b005b6102ae60048036038101906102a9919061151a565b610703565b6040516102bb9190611556565b60405180910390f35b6102cc61074b565b005b6102d661075f565b6040516102e3919061160a565b60405180910390f35b6102f4610789565b60405161030191906113e9565b60405180910390f35b610324600480360381019061031f91906114a4565b61081b565b005b610340600480360381019061033b91906114a4565b610871565b60405161034d91906114ff565b60405180910390f35b610370600480360381019061036b91906114a4565b6108e8565b60405161037d91906114ff565b60405180910390f35b6103a0600480360381019061039b9190611625565b61090b565b6040516103ad9190611556565b60405180910390f35b6103d060048036038101906103cb919061151a565b610992565b005b6060600380546103e190611694565b80601f016020809104026020016040519081016040528092919081815260200182805461040d90611694565b801561045a5780601f1061042f5761010080835404028352916020019161045a565b820191906000526020600020905b81548152906001019060200180831161043d57829003601f168201915b5050505050905090565b60008061046f610a15565b905061047c818585610a1d565b600191505092915050565b61048f610be6565b6104988161056b565b6104d7576040517f08c379a00000000000000000000000000000000000000000000000000000000081526004016104ce90611711565b60405180910390fd5b6000600660008373ffffffffffffffffffffffffffffffffffffffff1673ffffffffffffffffffffffffffffffffffffffff16815260200190815260200160002060006101000a81548160ff02191690831515021790555050565b6000600254905090565b600080610547610a15565b9050610554858285610c64565b61055f858585610cf0565b60019150509392505050565b6000600660008373ffffffffffffffffffffffffffffffffffffffff1673ffffffffffffffffffffffffffffffffffffffff16815260200190815260200160002060009054906101000a900460ff169050919050565b60006012905090565b6000806105d5610a15565b90506105f68185856105e7858961090b565b6105f19190611760565b610a1d565b600191505092915050565b61060a3361056b565b610649576040517f08c379a000000000000000000000000000000000000000000000000000000000815260040161064090611806565b60405180910390fd5b6106538282610f66565b5050565b61065f610be6565b6106688161056b565b156106a8576040517f08c379a000000000000000000000000000000000000000000000000000000000815260040161069f90611872565b60405180910390fd5b6001600660008373ffffffffffffffffffffffffffffffffffffffff1673ffffffffffffffffffffffffffffffffffffffff16815260200190815260200160002060006101000a81548160ff02191690831515021790555050565b60008060008373ffffffffffffffffffffffffffffffffffffffff1673ffffffffffffffffffffffffffffffffffffffff168152602001908152602001600020549050919050565b610753610be6565b61075d60006110bc565b565b6000600560009054906101000a900473ffffffffffffffffffffffffffffffffffffffff16905090565b60606004805461079890611694565b80601f01602080910402602001604051908101604052809291908181526020018280546107c490611694565b80156108115780601f106107e657610100808354040283529160200191610811565b820191906000526020600020905b8154815290600101906020018083116107f457829003601f168201915b5050505050905090565b6108243361056b565b610863576040517f08c379a000000000000000000000000000000000000000000000000000000000815260040161085a90611806565b60405180910390fd5b61086d8282611182565b5050565b60008061087c610a15565b9050600061088a828661090b565b9050838110156108cf576040517f08c379a00000000000000000000000000000000000000000000000000000000081526004016108c690611904565b60405180910390fd5b6108dc8286868403610a1d565b60019250505092915050565b6000806108f3610a15565b9050610900818585610cf0565b600191505092915050565b6000600160008473ffffffffffffffffffffffffffffffffffffffff1673ffffffffffffffffffffffffffffffffffffffff16815260200190815260200160002060008373ffffffffffffffffffffffffffffffffffffffff1673ffffffffffffffffffffffffffffffffffffffff16815260200190815260200160002054905092915050565b61099a610be6565b600073ffffffffffffffffffffffffffffffffffffffff168173ffffffffffffffffffffffffffffffffffffffff1603610a09576040517f08c379a0000000000000000000000000000000000000000000000000000000008152600401610a0090611996565b60405180910390fd5b610a12816110bc565b50565b600033905090565b600073ffffffffffffffffffffffffffffffffffffffff168373ffffffffffffffffffffffffffffffffffffffff1603610a8c576040517f08c379a0000000000000000000000000000000000000000000000000000000008152600401610a8390611a28565b60405180910390fd5b600073ffffffffffffffffffffffffffffffffffffffff168273ffffffffffffffffffffffffffffffffffffffff1603610afb576040517f08c379a0000000000000000000000000000000000000000000000000000000008152600401610af290611aba565b60405180910390fd5b80600160008573ffffffffffffffffffffffffffffffffffffffff1673ffffffffffffffffffffffffffffffffffffffff16815260200190815260200160002060008473ffffffffffffffffffffffffffffffffffffffff1673ffffffffffffffffffffffffffffffffffffffff168152602001908152602001600020819055508173ffffffffffffffffffffffffffffffffffffffff168373ffffffffffffffffffffffffffffffffffffffff167f8c5be1e5ebec7d5bd14f71427d1e84f3dd0314c0f7b2291e5b200ac8c7c3b92583604051610bd99190611556565b60405180910390a3505050565b610bee610a15565b73ffffffffffffffffffffffffffffffffffffffff16610c0c61075f565b73ffffffffffffffffffffffffffffffffffffffff1614610c62576040517f08c379a0000000000000000000000000000000000000000000000000000000008152600401610c5990611b26565b60405180910390fd5b565b6000610c70848461090b565b90507fffffffffffffffffffffffffffffffffffffffffffffffffffffffffffffffff8114610cea5781811015610cdc576040517f08c379a0000000000000000000000000000000000000000000000000000000008152600401610cd390611b92565b60405180910390fd5b610ce98484848403610a1d565b5b50505050565b600073ffffffffffffffffffffffffffffffffffffffff168373ffffffffffffffffffffffffffffffffffffffff1603610d5f576040517f08c379a0000000000000000000000000000000000000000000000000000000008152600401610d5690611c24565b60405180910390fd5b600073ffffffffffffffffffffffffffffffffffffffff168273ffffffffffffffffffffffffffffffffffffffff1603610dce576040517f08c379a0000000000000000000000000000000000000000000000000000000008152600401610dc590611cb6565b60405180910390fd5b610dd983838361134f565b60008060008573ffffffffffffffffffffffffffffffffffffffff1673ffffffffffffffffffffffffffffffffffffffff16815260200190815260200160002054905081811015610e5f576040517f08c379a0000000000000000000000000000000000000000000000000000000008152600401610e5690611d48565b60405180910390fd5b8181036000808673ffffffffffffffffffffffffffffffffffffffff1673ffffffffffffffffffffffffffffffffffffffff16815260200190815260200160002081905550816000808573ffffffffffffffffffffffffffffffffffffffff1673ffffffffffffffffffffffffffffffffffffffff168152602001908152602001600020600082825401925050819055508273ffffffffffffffffffffffffffffffffffffffff168473ffffffffffffffffffffffffffffffffffffffff167fddf252ad1be2c89b69c2b068fc378daa952ba7f163c4a11628f55a4df523b3ef84604051610f4d9190611556565b60405180910390a3610f60848484611354565b50505050565b600073ffffffffffffffffffffffffffffffffffffffff168273ffffffffffffffffffffffffffffffffffffffff1603610fd5576040517f08c379a0000000000000000000000000000000000000000000000000000000008152600401610fcc90611db4565b60405180910390fd5b610fe16000838361134f565b8060026000828254610ff39190611760565b92505081905550806000808473ffffffffffffffffffffffffffffffffffffffff1673ffffffffffffffffffffffffffffffffffffffff168152602001908152602001600020600082825401925050819055508173ffffffffffffffffffffffffffffffffffffffff16600073ffffffffffffffffffffffffffffffffffffffff167fddf252ad1be2c89b69c2b068fc378daa952ba7f163c4a11628f55a4df523b3ef836040516110a49190611556565b60405180910390a36110b860008383611354565b5050565b6000600560009054906101000a900473ffffffffffffffffffffffffffffffffffffffff16905081600560006101000a81548173ffffffffffffffffffffffffffffffffffffffff021916908373ffffffffffffffffffffffffffffffffffffffff1602179055508173ffffffffffffffffffffffffffffffffffffffff168173ffffffffffffffffffffffffffffffffffffffff167f8be0079c531659141344cd1fd0a4f28419497f9722a3daafe3b4186f6b6457e060405160405180910390a35050565b600073ffffffffffffffffffffffffffffffffffffffff168273ffffffffffffffffffffffffffffffffffffffff16036111f1576040517f08c379a00000000000000000000000000000000000000000000000000000000081526004016111e890611e46565b60405180910390fd5b6111fd8260008361134f565b60008060008473ffffffffffffffffffffffffffffffffffffffff1673ffffffffffffffffffffffffffffffffffffffff16815260200190815260200160002054905081811015611283576040517f08c379a000000000000000000000000000000000000000000000000000000000815260040161127a90611ed8565b60405180910390fd5b8181036000808573ffffffffffffffffffffffffffffffffffffffff1673ffffffffffffffffffffffffffffffffffffffff1681526020019081526020016000208190555081600260008282540392505081905550600073ffffffffffffffffffffffffffffffffffffffff168373ffffffffffffffffffffffffffffffffffffffff167fddf252ad1be2c89b69c2b068fc378daa952ba7f163c4a11628f55a4df523b3ef846040516113369190611556565b60405180910390a361134a83600084611354565b505050565b505050565b505050565b600081519050919050565b600082825260208201905092915050565b60005b83811015611393578082015181840152602081019050611378565b60008484015250505050565b6000601f19601f8301169050919050565b60006113bb82611359565b6113c58185611364565b93506113d5818560208601611375565b6113de8161139f565b840191505092915050565b6000602082019050818103600083015261140381846113b0565b905092915050565b600080fd5b600073ffffffffffffffffffffffffffffffffffffffff82169050919050565b600061143b82611410565b9050919050565b61144b81611430565b811461145657600080fd5b50565b60008135905061146881611442565b92915050565b6000819050919050565b6114818161146e565b811461148c57600080fd5b50565b60008135905061149e81611478565b92915050565b600080604083850312156114bb576114ba61140b565b5b60006114c985828601611459565b92505060206114da8582860161148f565b9150509250929050565b60008115159050919050565b6114f9816114e4565b82525050565b600060208201905061151460008301846114f0565b92915050565b6000602082840312156115305761152f61140b565b5b600061153e84828501611459565b91505092915050565b6115508161146e565b82525050565b600060208201905061156b6000830184611547565b92915050565b60008060006060848603121561158a5761158961140b565b5b600061159886828701611459565b93505060206115a986828701611459565b92505060406115ba8682870161148f565b9150509250925092565b600060ff82169050919050565b6115da816115c4565b82525050565b60006020820190506115f560008301846115d1565b92915050565b61160481611430565b82525050565b600060208201905061161f60008301846115fb565b92915050565b6000806040838503121561163c5761163b61140b565b5b600061164a85828601611459565b925050602061165b85828601611459565b9150509250929050565b7f4e487b7100000000000000000000000000000000000000000000000000000000600052602260045260246000fd5b600060028204905060018216806116ac57607f821691505b6020821081036116bf576116be611665565b5b50919050565b7f41646472657373206973206e6f7420616e2061646d696e000000000000000000600082015250565b60006116fb601783611364565b9150611706826116c5565b602082019050919050565b6000602082019050818103600083015261172a816116ee565b9050919050565b7f4e487b7100000000000000000000000000000000000000000000000000000000600052601160045260246000fd5b600061176b8261146e565b91506117768361146e565b925082820190508082111561178e5761178d611731565b5b92915050565b7f4f6e6c792061646d696e732063616e2063616c6c20746869732066756e63746960008201527f6f6e000000000000000000000000000000000000000000000000000000000000602082015250565b60006117f0602283611364565b91506117fb82611794565b604082019050919050565b6000602082019050818103600083015261181f816117e3565b9050919050565b7f4164647265737320697320616c726561647920616e2061646d696e0000000000600082015250565b600061185c601b83611364565b915061186782611826565b602082019050919050565b6000602082019050818103600083015261188b8161184f565b9050919050565b7f45524332303a2064656372656173656420616c6c6f77616e63652062656c6f7760008201527f207a65726f000000000000000000000000000000000000000000000000000000602082015250565b60006118ee602583611364565b91506118f982611892565b604082019050919050565b6000602082019050818103600083015261191d816118e1565b9050919050565b7f4f776e61626c653a206e6577206f776e657220697320746865207a65726f206160008201527f6464726573730000000000000000000000000000000000000000000000000000602082015250565b6000611980602683611364565b915061198b82611924565b604082019050919050565b600060208201905081810360008301526119af81611973565b9050919050565b7f45524332303a20617070726f76652066726f6d20746865207a65726f2061646460008201527f7265737300000000000000000000000000000000000000000000000000000000602082015250565b6000611a12602483611364565b9150611a1d826119b6565b604082019050919050565b60006020820190508181036000830152611a4181611a05565b9050919050565b7f45524332303a20617070726f766520746f20746865207a65726f20616464726560008201527f7373000000000000000000000000000000000000000000000000000000000000602082015250565b6000611aa4602283611364565b9150611aaf82611a48565b604082019050919050565b60006020820190508181036000830152611ad381611a97565b9050919050565b7f4f776e61626c653a2063616c6c6572206973206e6f7420746865206f776e6572600082015250565b6000611b10602083611364565b9150611b1b82611ada565b602082019050919050565b60006020820190508181036000830152611b3f81611b03565b9050919050565b7f45524332303a20696e73756666696369656e7420616c6c6f77616e6365000000600082015250565b6000611b7c601d83611364565b9150611b8782611b46565b602082019050919050565b60006020820190508181036000830152611bab81611b6f565b9050919050565b7f45524332303a207472616e736665722066726f6d20746865207a65726f20616460008201527f6472657373000000000000000000000000000000000000000000000000000000602082015250565b6000611c0e602583611364565b9150611c1982611bb2565b604082019050919050565b60006020820190508181036000830152611c3d81611c01565b9050919050565b7f45524332303a207472616e7366657220746f20746865207a65726f206164647260008201527f6573730000000000000000000000000000000000000000000000000000000000602082015250565b6000611ca0602383611364565b9150611cab82611c44565b604082019050919050565b60006020820190508181036000830152611ccf81611c93565b9050919050565b7f45524332303a207472616e7366657220616d6f756e742065786365656473206260008201527f616c616e63650000000000000000000000000000000000000000000000000000602082015250565b6000611d32602683611364565b9150611d3d82611cd6565b604082019050919050565b60006020820190508181036000830152611d6181611d25565b9050919050565b7f45524332303a206d696e7420746f20746865207a65726f206164647265737300600082015250565b6000611d9e601f83611364565b9150611da982611d68565b602082019050919050565b60006020820190508181036000830152611dcd81611d91565b9050919050565b7f45524332303a206275726e2066726f6d20746865207a65726f2061646472657360008201527f7300000000000000000000000000000000000000000000000000000000000000602082015250565b6000611e30602183611364565b9150611e3b82611dd4565b604082019050919050565b60006020820190508181036000830152611e5f81611e23565b9050919050565b7f45524332303a206275726e20616d6f756e7420657863656564732062616c616e60008201527f6365000000000000000000000000000000000000000000000000000000000000602082015250565b6000611ec2602283611364565b9150611ecd82611e66565b604082019050919050565b60006020820190508181036000830152611ef181611eb5565b905091905056fea26469706673582212203c91b73dca4e999248cdfbc315906b7049c11d1daec70230918afc7617d685cf64736f6c63430008130033",
  "immutableReferences": {},
  "source": "// SPDX-License-Identifier: MIT\r\npragma solidity ^0.8.0;\r\n\r\nimport \"@openzeppelin/contracts/token/ERC20/ERC20.sol\";\r\nimport \"@openzeppelin/contracts/access/Ownable.sol\";\r\n\r\ncontract MealToken is ERC20, Ownable {\r\n    mapping(address => bool) private _admins; \r\n\r\n    constructor(uint256 totalSupply) ERC20(\"Meals\", \"MEAL\") {\r\n        _mint(msg.sender, totalSupply);\r\n        _admins[msg.sender] = true;\r\n    }\r\n\r\n    modifier onlyAdmin() {\r\n        require(isAdmin(msg.sender), \"Only admins can call this function\");\r\n        _;\r\n    }\r\n\r\n    function isAdmin(address account) public view returns (bool) {\r\n        return _admins[account];\r\n    }\r\n\r\n    function addAdmin(address newAdmin) public onlyOwner {\r\n        require(!isAdmin(newAdmin), \"Address is already an admin\");\r\n        _admins[newAdmin] = true;\r\n    }\r\n\r\n    function removeAdmin(address adminToRemove) public onlyOwner {\r\n        require(isAdmin(adminToRemove), \"Address is not an admin\");\r\n        _admins[adminToRemove] = false;\r\n    }\r\n\r\n    function mint(address account, uint256 amount) public onlyAdmin {\r\n        _mint(account, amount);\r\n    }\r\n\r\n    function burn(address account, uint256 amount) public onlyAdmin {\r\n        _burn(account, amount);\r\n    }\r\n}\r\n\r\n\r\n\r\n",
  "sourcePath": "C:\\Users\\David\\Desktop\\tfm\\dapp-tfm\\v0\\contracts\\MealToken.sol",
  "compiler": {
    "name": "solc",
    "version": "0.8.19+commit.7dd6d404.Emscripten.clang"
  },
  "schemaVersion": "3.4.13",
  "updatedAt": "2023-09-16T11:25:27.058Z",
  "networkType": "ethereum",
  "devdoc": {
    "events": {
      "Approval(address,address,uint256)": {
        "details": "Emitted when the allowance of a `spender` for an `owner` is set by a call to {approve}. `value` is the new allowance."
      },
      "Transfer(address,address,uint256)": {
        "details": "Emitted when `value` tokens are moved from one account (`from`) to another (`to`). Note that `value` may be zero."
      }
    },
    "kind": "dev",
    "methods": {
      "allowance(address,address)": {
        "details": "See {IERC20-allowance}."
      },
      "approve(address,uint256)": {
        "details": "See {IERC20-approve}. NOTE: If `amount` is the maximum `uint256`, the allowance is not updated on `transferFrom`. This is semantically equivalent to an infinite approval. Requirements: - `spender` cannot be the zero address."
      },
      "balanceOf(address)": {
        "details": "See {IERC20-balanceOf}."
      },
      "decimals()": {
        "details": "Returns the number of decimals used to get its user representation. For example, if `decimals` equals `2`, a balance of `505` tokens should be displayed to a user as `5.05` (`505 / 10 ** 2`). Tokens usually opt for a value of 18, imitating the relationship between Ether and Wei. This is the default value returned by this function, unless it's overridden. NOTE: This information is only used for _display_ purposes: it in no way affects any of the arithmetic of the contract, including {IERC20-balanceOf} and {IERC20-transfer}."
      },
      "decreaseAllowance(address,uint256)": {
        "details": "Atomically decreases the allowance granted to `spender` by the caller. This is an alternative to {approve} that can be used as a mitigation for problems described in {IERC20-approve}. Emits an {Approval} event indicating the updated allowance. Requirements: - `spender` cannot be the zero address. - `spender` must have allowance for the caller of at least `subtractedValue`."
      },
      "increaseAllowance(address,uint256)": {
        "details": "Atomically increases the allowance granted to `spender` by the caller. This is an alternative to {approve} that can be used as a mitigation for problems described in {IERC20-approve}. Emits an {Approval} event indicating the updated allowance. Requirements: - `spender` cannot be the zero address."
      },
      "name()": {
        "details": "Returns the name of the token."
      },
      "owner()": {
        "details": "Returns the address of the current owner."
      },
      "renounceOwnership()": {
        "details": "Leaves the contract without owner. It will not be possible to call `onlyOwner` functions. Can only be called by the current owner. NOTE: Renouncing ownership will leave the contract without an owner, thereby disabling any functionality that is only available to the owner."
      },
      "symbol()": {
        "details": "Returns the symbol of the token, usually a shorter version of the name."
      },
      "totalSupply()": {
        "details": "See {IERC20-totalSupply}."
      },
      "transfer(address,uint256)": {
        "details": "See {IERC20-transfer}. Requirements: - `to` cannot be the zero address. - the caller must have a balance of at least `amount`."
      },
      "transferFrom(address,address,uint256)": {
        "details": "See {IERC20-transferFrom}. Emits an {Approval} event indicating the updated allowance. This is not required by the EIP. See the note at the beginning of {ERC20}. NOTE: Does not update the allowance if the current allowance is the maximum `uint256`. Requirements: - `from` and `to` cannot be the zero address. - `from` must have a balance of at least `amount`. - the caller must have allowance for ``from``'s tokens of at least `amount`."
      },
      "transferOwnership(address)": {
        "details": "Transfers ownership of the contract to a new account (`newOwner`). Can only be called by the current owner."
      }
    },
    "version": 1
  },
  "userdoc": {
    "kind": "user",
    "methods": {},
    "version": 1
  }
}