{
  "contractName": "OrderAdmin",
  "abi": [
    {
      "inputs": [
        {
          "internalType": "address",
          "name": "_tokenAddress",
          "type": "address"
        }
      ],
      "stateMutability": "nonpayable",
      "type": "constructor"
    },
    {
      "anonymous": false,
      "inputs": [
        {
          "indexed": true,
          "internalType": "address",
          "name": "customer",
          "type": "address"
        },
        {
          "indexed": false,
          "internalType": "uint256",
          "name": "newRewardsBalance",
          "type": "uint256"
        }
      ],
      "name": "MealRewardsUpdated",
      "type": "event"
    },
    {
      "anonymous": false,
      "inputs": [
        {
          "indexed": true,
          "internalType": "address",
          "name": "customer",
          "type": "address"
        },
        {
          "indexed": true,
          "internalType": "address",
          "name": "restaurant",
          "type": "address"
        },
        {
          "indexed": false,
          "internalType": "uint256",
          "name": "orderId",
          "type": "uint256"
        }
      ],
      "name": "PurchaseApprovedByCustomer",
      "type": "event"
    },
    {
      "anonymous": false,
      "inputs": [
        {
          "indexed": true,
          "internalType": "address",
          "name": "restaurant",
          "type": "address"
        },
        {
          "indexed": false,
          "internalType": "uint256",
          "name": "orderId",
          "type": "uint256"
        }
      ],
      "name": "PurchaseApprovedByRestaurant",
      "type": "event"
    },
    {
      "anonymous": false,
      "inputs": [
        {
          "indexed": true,
          "internalType": "address",
          "name": "customer",
          "type": "address"
        },
        {
          "indexed": true,
          "internalType": "address",
          "name": "restaurant",
          "type": "address"
        },
        {
          "indexed": false,
          "internalType": "uint256",
          "name": "orderId",
          "type": "uint256"
        }
      ],
      "name": "PurchaseClosed",
      "type": "event"
    },
    {
      "anonymous": false,
      "inputs": [
        {
          "indexed": true,
          "internalType": "address",
          "name": "customer",
          "type": "address"
        },
        {
          "indexed": true,
          "internalType": "address",
          "name": "restaurant",
          "type": "address"
        },
        {
          "indexed": false,
          "internalType": "uint256",
          "name": "orderId",
          "type": "uint256"
        }
      ],
      "name": "PurchaseCreated",
      "type": "event"
    },
    {
      "anonymous": false,
      "inputs": [
        {
          "indexed": true,
          "internalType": "address",
          "name": "restaurant",
          "type": "address"
        }
      ],
      "name": "RestaurantClosed",
      "type": "event"
    },
    {
      "anonymous": false,
      "inputs": [
        {
          "indexed": true,
          "internalType": "address",
          "name": "restaurant",
          "type": "address"
        },
        {
          "indexed": false,
          "internalType": "uint256",
          "name": "depositAmount",
          "type": "uint256"
        }
      ],
      "name": "RestaurantRegistered",
      "type": "event"
    },
    {
      "anonymous": false,
      "inputs": [
        {
          "indexed": true,
          "internalType": "address",
          "name": "restaurant",
          "type": "address"
        }
      ],
      "name": "RestaurantUnregistered",
      "type": "event"
    },
    {
      "anonymous": false,
      "inputs": [
        {
          "indexed": true,
          "internalType": "address",
          "name": "customer",
          "type": "address"
        },
        {
          "indexed": false,
          "internalType": "uint256",
          "name": "amount",
          "type": "uint256"
        }
      ],
      "name": "TokensMinted",
      "type": "event"
    },
    {
      "inputs": [
        {
          "internalType": "address",
          "name": "",
          "type": "address"
        }
      ],
      "name": "activeRestaurants",
      "outputs": [
        {
          "internalType": "bool",
          "name": "",
          "type": "bool"
        }
      ],
      "stateMutability": "view",
      "type": "function",
      "constant": true
    },
    {
      "inputs": [
        {
          "internalType": "address",
          "name": "",
          "type": "address"
        },
        {
          "internalType": "address",
          "name": "",
          "type": "address"
        }
      ],
      "name": "activeUserIds",
      "outputs": [
        {
          "internalType": "uint256",
          "name": "",
          "type": "uint256"
        }
      ],
      "stateMutability": "view",
      "type": "function",
      "constant": true
    },
    {
      "inputs": [
        {
          "internalType": "address",
          "name": "",
          "type": "address"
        }
      ],
      "name": "admins",
      "outputs": [
        {
          "internalType": "bool",
          "name": "",
          "type": "bool"
        }
      ],
      "stateMutability": "view",
      "type": "function",
      "constant": true
    },
    {
      "inputs": [],
      "name": "depositAmount",
      "outputs": [
        {
          "internalType": "uint256",
          "name": "",
          "type": "uint256"
        }
      ],
      "stateMutability": "view",
      "type": "function",
      "constant": true
    },
    {
      "inputs": [
        {
          "internalType": "address",
          "name": "",
          "type": "address"
        },
        {
          "internalType": "address",
          "name": "",
          "type": "address"
        }
      ],
      "name": "mealRewards",
      "outputs": [
        {
          "internalType": "uint256",
          "name": "",
          "type": "uint256"
        }
      ],
      "stateMutability": "view",
      "type": "function",
      "constant": true
    },
    {
      "inputs": [
        {
          "internalType": "address",
          "name": "",
          "type": "address"
        }
      ],
      "name": "orderIds",
      "outputs": [
        {
          "internalType": "uint256",
          "name": "",
          "type": "uint256"
        }
      ],
      "stateMutability": "view",
      "type": "function",
      "constant": true
    },
    {
      "inputs": [
        {
          "internalType": "address",
          "name": "",
          "type": "address"
        },
        {
          "internalType": "uint256",
          "name": "",
          "type": "uint256"
        }
      ],
      "name": "purchases",
      "outputs": [
        {
          "internalType": "address",
          "name": "customer",
          "type": "address"
        },
        {
          "internalType": "uint256",
          "name": "amountToPay_Fiat",
          "type": "uint256"
        },
        {
          "internalType": "uint256",
          "name": "amountToPay_Ether",
          "type": "uint256"
        },
        {
          "internalType": "uint256",
          "name": "usedMealsTokens",
          "type": "uint256"
        },
        {
          "internalType": "bool",
          "name": "isClosed",
          "type": "bool"
        },
        {
          "internalType": "bool",
          "name": "isCustomerApproved",
          "type": "bool"
        },
        {
          "internalType": "bool",
          "name": "isRestaurantApproved",
          "type": "bool"
        },
        {
          "internalType": "uint256",
          "name": "mealBonus",
          "type": "uint256"
        },
        {
          "internalType": "string",
          "name": "status",
          "type": "string"
        }
      ],
      "stateMutability": "view",
      "type": "function",
      "constant": true
    },
    {
      "inputs": [
        {
          "internalType": "address",
          "name": "_admin",
          "type": "address"
        },
        {
          "internalType": "bool",
          "name": "_status",
          "type": "bool"
        }
      ],
      "name": "setAdmin",
      "outputs": [],
      "stateMutability": "nonpayable",
      "type": "function"
    },
    {
      "inputs": [],
      "name": "registerRestaurant",
      "outputs": [],
      "stateMutability": "payable",
      "type": "function",
      "payable": true
    },
    {
      "inputs": [
        {
          "internalType": "address",
          "name": "_restaurant",
          "type": "address"
        }
      ],
      "name": "closeRestaurant",
      "outputs": [],
      "stateMutability": "nonpayable",
      "type": "function"
    },
    {
      "inputs": [
        {
          "internalType": "address",
          "name": "_restaurant",
          "type": "address"
        }
      ],
      "name": "unregisterRestaurant",
      "outputs": [],
      "stateMutability": "nonpayable",
      "type": "function"
    },
    {
      "inputs": [
        {
          "internalType": "address",
          "name": "_restaurant",
          "type": "address"
        },
        {
          "internalType": "uint256",
          "name": "_amountFIAT",
          "type": "uint256"
        },
        {
          "internalType": "uint256",
          "name": "_amountEther",
          "type": "uint256"
        },
        {
          "internalType": "uint256",
          "name": "_meals",
          "type": "uint256"
        },
        {
          "internalType": "uint256",
          "name": "_mealBonus",
          "type": "uint256"
        }
      ],
      "name": "createPurchase",
      "outputs": [],
      "stateMutability": "nonpayable",
      "type": "function"
    },
    {
      "inputs": [
        {
          "internalType": "address",
          "name": "_restaurant",
          "type": "address"
        },
        {
          "internalType": "uint256",
          "name": "order_id",
          "type": "uint256"
        }
      ],
      "name": "deposit",
      "outputs": [],
      "stateMutability": "payable",
      "type": "function",
      "payable": true
    },
    {
      "inputs": [
        {
          "internalType": "uint256",
          "name": "order_id",
          "type": "uint256"
        }
      ],
      "name": "approveOrder",
      "outputs": [],
      "stateMutability": "nonpayable",
      "type": "function"
    },
    {
      "inputs": [
        {
          "internalType": "address",
          "name": "_restaurant",
          "type": "address"
        },
        {
          "internalType": "uint256",
          "name": "order_id",
          "type": "uint256"
        }
      ],
      "name": "approvePurchase",
      "outputs": [],
      "stateMutability": "nonpayable",
      "type": "function"
    },
    {
      "inputs": [
        {
          "internalType": "uint256",
          "name": "order_id",
          "type": "uint256"
        }
      ],
      "name": "closeAndPay",
      "outputs": [],
      "stateMutability": "nonpayable",
      "type": "function"
    },
    {
      "inputs": [
        {
          "internalType": "address",
          "name": "_restaurant",
          "type": "address"
        }
      ],
      "name": "isRestaurantActive",
      "outputs": [
        {
          "internalType": "bool",
          "name": "",
          "type": "bool"
        }
      ],
      "stateMutability": "view",
      "type": "function",
      "constant": true
    },
    {
      "inputs": [
        {
          "internalType": "address",
          "name": "_restaurant",
          "type": "address"
        }
      ],
      "name": "getMealRewards",
      "outputs": [
        {
          "internalType": "uint256",
          "name": "",
          "type": "uint256"
        }
      ],
      "stateMutability": "view",
      "type": "function",
      "constant": true
    },
    {
      "inputs": [
        {
          "internalType": "address",
          "name": "_address",
          "type": "address"
        }
      ],
      "name": "isAdmin",
      "outputs": [
        {
          "internalType": "bool",
          "name": "",
          "type": "bool"
        }
      ],
      "stateMutability": "view",
      "type": "function",
      "constant": true
    },
    {
      "inputs": [],
      "name": "getContractBalance",
      "outputs": [
        {
          "internalType": "uint256",
          "name": "",
          "type": "uint256"
        }
      ],
      "stateMutability": "view",
      "type": "function",
      "constant": true
    }
  ],
  "bytecode": "0x60806040523480156200001157600080fd5b5060405162003c6a38038062003c6a83398181016040528101906200003791906200014f565b806000806101000a81548173ffffffffffffffffffffffffffffffffffffffff021916908373ffffffffffffffffffffffffffffffffffffffff1602179055506001600760003373ffffffffffffffffffffffffffffffffffffffff1673ffffffffffffffffffffffffffffffffffffffff16815260200190815260200160002060006101000a81548160ff02191690831515021790555067016345785d8a00006001819055505062000181565b600080fd5b600073ffffffffffffffffffffffffffffffffffffffff82169050919050565b60006200011782620000ea565b9050919050565b62000129816200010a565b81146200013557600080fd5b50565b60008151905062000149816200011e565b92915050565b600060208284031215620001685762000167620000e5565b5b6000620001788482850162000138565b91505092915050565b613ad980620001916000396000f3fe60806040526004361061011f5760003560e01c80636f9fb98a116100a0578063bd4b8a0411610064578063bd4b8a041461042a578063d766b31d14610453578063e358b29d14610490578063e3825997146104b9578063fa20fca7146104e25761011f565b80636f9fb98a1461031f57806372c21f011461034a57806380e7b061146103875780639c163c0d146103c4578063a565b451146104015761011f565b8063429b62e5116100e7578063429b62e51461021b57806347e7ef24146102585780634b0bddd21461027457806352d3f8491461029d578063637db915146102e25761011f565b806324d7806c146101245780632ad42de1146101615780633e9ccbae1461018a578063419759f5146101c757806341c53437146101f2575b600080fd5b34801561013057600080fd5b5061014b600480360381019061014691906127bd565b6104ec565b6040516101589190612805565b60405180910390f35b34801561016d57600080fd5b5061018860048036038101906101839190612856565b610542565b005b34801561019657600080fd5b506101b160048036038101906101ac91906127bd565b6108c0565b6040516101be9190612805565b60405180910390f35b3480156101d357600080fd5b506101dc610916565b6040516101e991906128a5565b60405180910390f35b3480156101fe57600080fd5b50610219600480360381019061021491906127bd565b61091c565b005b34801561022757600080fd5b50610242600480360381019061023d91906127bd565b610b1b565b60405161024f9190612805565b60405180910390f35b610272600480360381019061026d9190612856565b610b3b565b005b34801561028057600080fd5b5061029b600480360381019061029691906128ec565b610eba565b005b3480156102a957600080fd5b506102c460048036038101906102bf9190612856565b610fa1565b6040516102d9999897969594939291906129cb565b60405180910390f35b3480156102ee57600080fd5b50610309600480360381019061030491906127bd565b6110cb565b6040516103169190612805565b60405180910390f35b34801561032b57600080fd5b506103346110eb565b60405161034191906128a5565b60405180910390f35b34801561035657600080fd5b50610371600480360381019061036c9190612a5f565b6110f3565b60405161037e91906128a5565b60405180910390f35b34801561039357600080fd5b506103ae60048036038101906103a991906127bd565b611118565b6040516103bb91906128a5565b60405180910390f35b3480156103d057600080fd5b506103eb60048036038101906103e691906127bd565b611130565b6040516103f891906128a5565b60405180910390f35b34801561040d57600080fd5b5061042860048036038101906104239190612a9f565b6111b6565b005b34801561043657600080fd5b50610451600480360381019061044c9190612a9f565b611b17565b005b34801561045f57600080fd5b5061047a60048036038101906104759190612a5f565b611deb565b60405161048791906128a5565b60405180910390f35b34801561049c57600080fd5b506104b760048036038101906104b29190612acc565b611e10565b005b3480156104c557600080fd5b506104e060048036038101906104db91906127bd565b612429565b005b6104ea6125df565b005b6000600760008373ffffffffffffffffffffffffffffffffffffffff1673ffffffffffffffffffffffffffffffffffffffff16815260200190815260200160002060009054906101000a900460ff169050919050565b60001515600560003373ffffffffffffffffffffffffffffffffffffffff1673ffffffffffffffffffffffffffffffffffffffff16815260200190815260200160002060009054906101000a900460ff161515146105d5576040517f08c379a00000000000000000000000000000000000000000000000000000000081526004016105cc90612bb9565b60405180910390fd5b6000600260008473ffffffffffffffffffffffffffffffffffffffff1673ffffffffffffffffffffffffffffffffffffffff16815260200190815260200160002060008381526020019081526020016000209050600073ffffffffffffffffffffffffffffffffffffffff168160000160009054906101000a900473ffffffffffffffffffffffffffffffffffffffff1673ffffffffffffffffffffffffffffffffffffffff16036106bc576040517f08c379a00000000000000000000000000000000000000000000000000000000081526004016106b390612c25565b60405180910390fd5b8060040160009054906101000a900460ff161561070e576040517f08c379a000000000000000000000000000000000000000000000000000000000815260040161070590612c91565b60405180910390fd5b3373ffffffffffffffffffffffffffffffffffffffff168160000160009054906101000a900473ffffffffffffffffffffffffffffffffffffffff1673ffffffffffffffffffffffffffffffffffffffff16146107a0576040517f08c379a000000000000000000000000000000000000000000000000000000000815260040161079790612cfd565b60405180910390fd5b8060040160019054906101000a900460ff16156107f2576040517f08c379a00000000000000000000000000000000000000000000000000000000081526004016107e990612d8f565b60405180910390fd5b60018160040160016101000a81548160ff0219169083151502179055506040518060400160405280601781526020017f507572636861736520726561647920746f20636c6f73650000000000000000008152508160060190816108559190612fea565b508273ffffffffffffffffffffffffffffffffffffffff163373ffffffffffffffffffffffffffffffffffffffff167f2ae70132f75386860812c60e9cb7d0dcd19c6e9440457d9fc004f15be75d3f9b846040516108b391906128a5565b60405180910390a3505050565b6000600560008373ffffffffffffffffffffffffffffffffffffffff1673ffffffffffffffffffffffffffffffffffffffff16815260200190815260200160002060009054906101000a900460ff169050919050565b60015481565b600760003373ffffffffffffffffffffffffffffffffffffffff1673ffffffffffffffffffffffffffffffffffffffff16815260200190815260200160002060009054906101000a900460ff166109a8576040517f08c379a000000000000000000000000000000000000000000000000000000000815260040161099f9061312e565b60405180910390fd5b600560008273ffffffffffffffffffffffffffffffffffffffff1673ffffffffffffffffffffffffffffffffffffffff16815260200190815260200160002060009054906101000a900460ff16610a34576040517f08c379a0000000000000000000000000000000000000000000000000000000008152600401610a2b906131c0565b60405180910390fd5b6000600560008373ffffffffffffffffffffffffffffffffffffffff1673ffffffffffffffffffffffffffffffffffffffff16815260200190815260200160002060006101000a81548160ff0219169083151502179055508073ffffffffffffffffffffffffffffffffffffffff166108fc6001549081150290604051600060405180830381858888f19350505050158015610ad4573d6000803e3d6000fd5b508073ffffffffffffffffffffffffffffffffffffffff167fcd9a6b3427d8437743bba541ed5a9596c267b8aea83b1d74abf96a988766776e60405160405180910390a250565b60076020528060005260406000206000915054906101000a900460ff1681565b60001515600560003373ffffffffffffffffffffffffffffffffffffffff1673ffffffffffffffffffffffffffffffffffffffff16815260200190815260200160002060009054906101000a900460ff16151514610bce576040517f08c379a0000000000000000000000000000000000000000000000000000000008152600401610bc590612bb9565b60405180910390fd5b6000600260008473ffffffffffffffffffffffffffffffffffffffff1673ffffffffffffffffffffffffffffffffffffffff16815260200190815260200160002060008381526020019081526020016000209050600073ffffffffffffffffffffffffffffffffffffffff168160000160009054906101000a900473ffffffffffffffffffffffffffffffffffffffff1673ffffffffffffffffffffffffffffffffffffffff1603610cb5576040517f08c379a0000000000000000000000000000000000000000000000000000000008152600401610cac90612c25565b60405180910390fd5b8060040160009054906101000a900460ff1615610d07576040517f08c379a0000000000000000000000000000000000000000000000000000000008152600401610cfe90612c91565b60405180910390fd5b3373ffffffffffffffffffffffffffffffffffffffff168160000160009054906101000a900473ffffffffffffffffffffffffffffffffffffffff1673ffffffffffffffffffffffffffffffffffffffff1614610d99576040517f08c379a0000000000000000000000000000000000000000000000000000000008152600401610d9090612cfd565b60405180910390fd5b604051602001610da890613237565b6040516020818303038152906040528051906020012081600601604051602001610dd291906132cf565b6040516020818303038152906040528051906020012014610e28576040517f08c379a0000000000000000000000000000000000000000000000000000000008152600401610e1f90613332565b60405180910390fd5b80600201543414610e6e576040517f08c379a0000000000000000000000000000000000000000000000000000000008152600401610e65906133c4565b60405180910390fd5b6040518060400160405280601a81526020017f57616974696e672072657374617572616e74206170726f76616c000000000000815250816006019081610eb49190612fea565b50505050565b600760003373ffffffffffffffffffffffffffffffffffffffff1673ffffffffffffffffffffffffffffffffffffffff16815260200190815260200160002060009054906101000a900460ff16610f46576040517f08c379a0000000000000000000000000000000000000000000000000000000008152600401610f3d9061312e565b60405180910390fd5b80600760008473ffffffffffffffffffffffffffffffffffffffff1673ffffffffffffffffffffffffffffffffffffffff16815260200190815260200160002060006101000a81548160ff0219169083151502179055505050565b6002602052816000526040600020602052806000526040600020600091509150508060000160009054906101000a900473ffffffffffffffffffffffffffffffffffffffff16908060010154908060020154908060030154908060040160009054906101000a900460ff16908060040160019054906101000a900460ff16908060040160029054906101000a900460ff169080600501549080600601805461104890612e0d565b80601f016020809104026020016040519081016040528092919081815260200182805461107490612e0d565b80156110c15780601f10611096576101008083540402835291602001916110c1565b820191906000526020600020905b8154815290600101906020018083116110a457829003601f168201915b5050505050905089565b60056020528060005260406000206000915054906101000a900460ff1681565b600047905090565b6006602052816000526040600020602052806000526040600020600091509150505481565b60046020528060005260406000206000915090505481565b6000600660003373ffffffffffffffffffffffffffffffffffffffff1673ffffffffffffffffffffffffffffffffffffffff16815260200190815260200160002060008373ffffffffffffffffffffffffffffffffffffffff1673ffffffffffffffffffffffffffffffffffffffff168152602001908152602001600020549050919050565b60011515600560003373ffffffffffffffffffffffffffffffffffffffff1673ffffffffffffffffffffffffffffffffffffffff16815260200190815260200160002060009054906101000a900460ff16151514611249576040517f08c379a000000000000000000000000000000000000000000000000000000000815260040161124090613456565b60405180910390fd5b6000600260003373ffffffffffffffffffffffffffffffffffffffff1673ffffffffffffffffffffffffffffffffffffffff16815260200190815260200160002060008381526020019081526020016000209050600073ffffffffffffffffffffffffffffffffffffffff168160000160009054906101000a900473ffffffffffffffffffffffffffffffffffffffff1673ffffffffffffffffffffffffffffffffffffffff1603611330576040517f08c379a000000000000000000000000000000000000000000000000000000000815260040161132790612c25565b60405180910390fd5b8060040160019054906101000a900460ff16611381576040517f08c379a0000000000000000000000000000000000000000000000000000000008152600401611378906134e8565b60405180910390fd5b8060040160029054906101000a900460ff166113d2576040517f08c379a00000000000000000000000000000000000000000000000000000000081526004016113c99061357a565b60405180910390fd5b8060040160009054906101000a900460ff1615611424576040517f08c379a000000000000000000000000000000000000000000000000000000000815260040161141b906135e6565b60405180910390fd5b60018160040160006101000a81548160ff0219169083151502179055506040518060400160405280600681526020017f436c6f73656400000000000000000000000000000000000000000000000000008152508160060190816114879190612fea565b503373ffffffffffffffffffffffffffffffffffffffff166108fc82600201549081150290604051600060405180830381858888f193505050501580156114d2573d6000803e3d6000fd5b506000600360003373ffffffffffffffffffffffffffffffffffffffff1673ffffffffffffffffffffffffffffffffffffffff16815260200190815260200160002060008360000160009054906101000a900473ffffffffffffffffffffffffffffffffffffffff1673ffffffffffffffffffffffffffffffffffffffff1673ffffffffffffffffffffffffffffffffffffffff16815260200190815260200160002081905550600081600301541461163b5760008054906101000a900473ffffffffffffffffffffffffffffffffffffffff1673ffffffffffffffffffffffffffffffffffffffff16639dc29fac8260000160009054906101000a900473ffffffffffffffffffffffffffffffffffffffff1683600301546040518363ffffffff1660e01b8152600401611608929190613606565b600060405180830381600087803b15801561162257600080fd5b505af1158015611636573d6000803e3d6000fd5b505050505b8060050154600660008360000160009054906101000a900473ffffffffffffffffffffffffffffffffffffffff1673ffffffffffffffffffffffffffffffffffffffff1673ffffffffffffffffffffffffffffffffffffffff16815260200190815260200160002060003373ffffffffffffffffffffffffffffffffffffffff1673ffffffffffffffffffffffffffffffffffffffff16815260200190815260200160002060008282546116ef919061365e565b92505081905550678ac7230489e80000600660008360000160009054906101000a900473ffffffffffffffffffffffffffffffffffffffff1673ffffffffffffffffffffffffffffffffffffffff1673ffffffffffffffffffffffffffffffffffffffff16815260200190815260200160002060003373ffffffffffffffffffffffffffffffffffffffff1673ffffffffffffffffffffffffffffffffffffffff16815260200190815260200160002054106119785760008054906101000a900473ffffffffffffffffffffffffffffffffffffffff1673ffffffffffffffffffffffffffffffffffffffff166340c10f198260000160009054906101000a900473ffffffffffffffffffffffffffffffffffffffff16678ac7230489e800006040518363ffffffff1660e01b815260040161182c9291906136cd565b600060405180830381600087803b15801561184657600080fd5b505af115801561185a573d6000803e3d6000fd5b505050506000600660008360000160009054906101000a900473ffffffffffffffffffffffffffffffffffffffff1673ffffffffffffffffffffffffffffffffffffffff1673ffffffffffffffffffffffffffffffffffffffff16815260200190815260200160002060003373ffffffffffffffffffffffffffffffffffffffff1673ffffffffffffffffffffffffffffffffffffffff168152602001908152602001600020819055508060000160009054906101000a900473ffffffffffffffffffffffffffffffffffffffff1673ffffffffffffffffffffffffffffffffffffffff167f3f2c9d57c068687834f0de942a9babb9e5acab57d516d3480a3c16ee165a4273600a60405161196f9190613731565b60405180910390a25b3373ffffffffffffffffffffffffffffffffffffffff168160000160009054906101000a900473ffffffffffffffffffffffffffffffffffffffff1673ffffffffffffffffffffffffffffffffffffffff167f4acb888ef63ea1d3c92b6f42e4183eea37a0eac28c94b4e99c3cdd704da3fc6e846040516119f991906128a5565b60405180910390a38060000160009054906101000a900473ffffffffffffffffffffffffffffffffffffffff1673ffffffffffffffffffffffffffffffffffffffff167f9968004c75048b26523b7c6222dbebce24d9e7a8cda71f32663c50cb5f3ca17e600660008460000160009054906101000a900473ffffffffffffffffffffffffffffffffffffffff1673ffffffffffffffffffffffffffffffffffffffff1673ffffffffffffffffffffffffffffffffffffffff16815260200190815260200160002060003373ffffffffffffffffffffffffffffffffffffffff1673ffffffffffffffffffffffffffffffffffffffff16815260200190815260200160002054604051611b0b91906128a5565b60405180910390a25050565b60011515600560003373ffffffffffffffffffffffffffffffffffffffff1673ffffffffffffffffffffffffffffffffffffffff16815260200190815260200160002060009054906101000a900460ff16151514611baa576040517f08c379a0000000000000000000000000000000000000000000000000000000008152600401611ba190613456565b60405180910390fd5b6000600260003373ffffffffffffffffffffffffffffffffffffffff1673ffffffffffffffffffffffffffffffffffffffff16815260200190815260200160002060008381526020019081526020016000209050600073ffffffffffffffffffffffffffffffffffffffff168160000160009054906101000a900473ffffffffffffffffffffffffffffffffffffffff1673ffffffffffffffffffffffffffffffffffffffff1603611c91576040517f08c379a0000000000000000000000000000000000000000000000000000000008152600401611c8890612c25565b60405180910390fd5b8060040160009054906101000a900460ff1615611ce3576040517f08c379a0000000000000000000000000000000000000000000000000000000008152600401611cda90612c91565b60405180910390fd5b8060040160029054906101000a900460ff1615611d35576040517f08c379a0000000000000000000000000000000000000000000000000000000008152600401611d2c906137be565b60405180910390fd5b60018160040160026101000a81548160ff0219169083151502179055506040518060400160405280601881526020017f57616974696e6720637573746f6d6572206170726f76616c0000000000000000815250816006019081611d989190612fea565b503373ffffffffffffffffffffffffffffffffffffffff167f500fe16ced9191fdedaf3123f8c3b0b1738e5e4bf87870f8e5846f2c8a5bb74d83604051611ddf91906128a5565b60405180910390a25050565b6003602052816000526040600020602052806000526040600020600091509150505481565b60001515600560003373ffffffffffffffffffffffffffffffffffffffff1673ffffffffffffffffffffffffffffffffffffffff16815260200190815260200160002060009054906101000a900460ff16151514611ea3576040517f08c379a0000000000000000000000000000000000000000000000000000000008152600401611e9a90612bb9565b60405180910390fd5b600560008673ffffffffffffffffffffffffffffffffffffffff1673ffffffffffffffffffffffffffffffffffffffff16815260200190815260200160002060009054906101000a900460ff16611f2f576040517f08c379a0000000000000000000000000000000000000000000000000000000008152600401611f269061382a565b60405180910390fd5b6000600360008773ffffffffffffffffffffffffffffffffffffffff1673ffffffffffffffffffffffffffffffffffffffff16815260200190815260200160002060003373ffffffffffffffffffffffffffffffffffffffff1673ffffffffffffffffffffffffffffffffffffffff1681526020019081526020016000205414611fee576040517f08c379a0000000000000000000000000000000000000000000000000000000008152600401611fe5906138bc565b60405180910390fd5b600082106120d3578160008054906101000a900473ffffffffffffffffffffffffffffffffffffffff1673ffffffffffffffffffffffffffffffffffffffff166370a08231336040518263ffffffff1660e01b815260040161205091906138dc565b602060405180830381865afa15801561206d573d6000803e3d6000fd5b505050506040513d601f19601f82011682018060405250810190612091919061390c565b10156120d2576040517f08c379a00000000000000000000000000000000000000000000000000000000081526004016120c990613985565b60405180910390fd5b5b6001600460008773ffffffffffffffffffffffffffffffffffffffff1673ffffffffffffffffffffffffffffffffffffffff1681526020019081526020016000206000828254612123919061365e565b925050819055506000600460008773ffffffffffffffffffffffffffffffffffffffff1673ffffffffffffffffffffffffffffffffffffffff1681526020019081526020016000205490506040518061012001604052803373ffffffffffffffffffffffffffffffffffffffff1681526020018681526020018581526020018481526020016000151581526020016000151581526020016000151581526020018381526020016040518060400160405280600f81526020017f4465706f7369742070656e64696e670000000000000000000000000000000000815250815250600260008873ffffffffffffffffffffffffffffffffffffffff1673ffffffffffffffffffffffffffffffffffffffff168152602001908152602001600020600083815260200190815260200160002060008201518160000160006101000a81548173ffffffffffffffffffffffffffffffffffffffff021916908373ffffffffffffffffffffffffffffffffffffffff16021790555060208201518160010155604082015181600201556060820151816003015560808201518160040160006101000a81548160ff02191690831515021790555060a08201518160040160016101000a81548160ff02191690831515021790555060c08201518160040160026101000a81548160ff02191690831515021790555060e082015181600501556101008201518160060190816123379190612fea565b5090505080600360008873ffffffffffffffffffffffffffffffffffffffff1673ffffffffffffffffffffffffffffffffffffffff16815260200190815260200160002060003373ffffffffffffffffffffffffffffffffffffffff1673ffffffffffffffffffffffffffffffffffffffff168152602001908152602001600020819055508573ffffffffffffffffffffffffffffffffffffffff163373ffffffffffffffffffffffffffffffffffffffff167ff3e12cb0febfd07605a0b145904ef41808774df3258b2792b8814cedee77b95a8360405161241991906128a5565b60405180910390a3505050505050565b600760003373ffffffffffffffffffffffffffffffffffffffff1673ffffffffffffffffffffffffffffffffffffffff16815260200190815260200160002060009054906101000a900460ff166124b5576040517f08c379a00000000000000000000000000000000000000000000000000000000081526004016124ac9061312e565b60405180910390fd5b600560008273ffffffffffffffffffffffffffffffffffffffff1673ffffffffffffffffffffffffffffffffffffffff16815260200190815260200160002060009054906101000a900460ff16612541576040517f08c379a00000000000000000000000000000000000000000000000000000000081526004016125389061382a565b60405180910390fd5b6000600560008373ffffffffffffffffffffffffffffffffffffffff1673ffffffffffffffffffffffffffffffffffffffff16815260200190815260200160002060006101000a81548160ff0219169083151502179055508073ffffffffffffffffffffffffffffffffffffffff167f7373cbe4d1f0a1ce19fe118c1b5eb0cec43df56c265e80966024527ca8dfafab60405160405180910390a250565b600560003373ffffffffffffffffffffffffffffffffffffffff1673ffffffffffffffffffffffffffffffffffffffff16815260200190815260200160002060009054906101000a900460ff161561266c576040517f08c379a0000000000000000000000000000000000000000000000000000000008152600401612663906139f1565b60405180910390fd5b60015434146126b0576040517f08c379a00000000000000000000000000000000000000000000000000000000081526004016126a790613a83565b60405180910390fd5b6001600560003373ffffffffffffffffffffffffffffffffffffffff1673ffffffffffffffffffffffffffffffffffffffff16815260200190815260200160002060006101000a81548160ff0219169083151502179055503373ffffffffffffffffffffffffffffffffffffffff167f4b5dd33bfe8981649a096465274d331a09e29da3c29d9adf27898d9fde15ec4260015460405161275091906128a5565b60405180910390a2565b600080fd5b600073ffffffffffffffffffffffffffffffffffffffff82169050919050565b600061278a8261275f565b9050919050565b61279a8161277f565b81146127a557600080fd5b50565b6000813590506127b781612791565b92915050565b6000602082840312156127d3576127d261275a565b5b60006127e1848285016127a8565b91505092915050565b60008115159050919050565b6127ff816127ea565b82525050565b600060208201905061281a60008301846127f6565b92915050565b6000819050919050565b61283381612820565b811461283e57600080fd5b50565b6000813590506128508161282a565b92915050565b6000806040838503121561286d5761286c61275a565b5b600061287b858286016127a8565b925050602061288c85828601612841565b9150509250929050565b61289f81612820565b82525050565b60006020820190506128ba6000830184612896565b92915050565b6128c9816127ea565b81146128d457600080fd5b50565b6000813590506128e6816128c0565b92915050565b600080604083850312156129035761290261275a565b5b6000612911858286016127a8565b9250506020612922858286016128d7565b9150509250929050565b6129358161277f565b82525050565b600081519050919050565b600082825260208201905092915050565b60005b8381101561297557808201518184015260208101905061295a565b60008484015250505050565b6000601f19601f8301169050919050565b600061299d8261293b565b6129a78185612946565b93506129b7818560208601612957565b6129c081612981565b840191505092915050565b6000610120820190506129e1600083018c61292c565b6129ee602083018b612896565b6129fb604083018a612896565b612a086060830189612896565b612a1560808301886127f6565b612a2260a08301876127f6565b612a2f60c08301866127f6565b612a3c60e0830185612896565b818103610100830152612a4f8184612992565b90509a9950505050505050505050565b60008060408385031215612a7657612a7561275a565b5b6000612a84858286016127a8565b9250506020612a95858286016127a8565b9150509250929050565b600060208284031215612ab557612ab461275a565b5b6000612ac384828501612841565b91505092915050565b600080600080600060a08688031215612ae857612ae761275a565b5b6000612af6888289016127a8565b9550506020612b0788828901612841565b9450506040612b1888828901612841565b9350506060612b2988828901612841565b9250506080612b3a88828901612841565b9150509295509295909350565b7f4f6e6c7920637573746f6d65722063616e2063616c6c20746869732066756e6360008201527f74696f6e00000000000000000000000000000000000000000000000000000000602082015250565b6000612ba3602483612946565b9150612bae82612b47565b604082019050919050565b60006020820190508181036000830152612bd281612b96565b9050919050565b7f546865206f7264657220696420646f6573206e6f742065786973747300000000600082015250565b6000612c0f601c83612946565b9150612c1a82612bd9565b602082019050919050565b60006020820190508181036000830152612c3e81612c02565b9050919050565b7f596f7572206f7264657220697320616c726561647920636c6f73656400000000600082015250565b6000612c7b601c83612946565b9150612c8682612c45565b602082019050919050565b60006020820190508181036000830152612caa81612c6e565b9050919050565b7f596f7520646f206e6f74206f7264657220746869732070757263686173650000600082015250565b6000612ce7601e83612946565b9150612cf282612cb1565b602082019050919050565b60006020820190508181036000830152612d1681612cda565b9050919050565b7f546865206f7264657220697320616c726561647920617070726f76656420627960008201527f20637573746f6d65720000000000000000000000000000000000000000000000602082015250565b6000612d79602983612946565b9150612d8482612d1d565b604082019050919050565b60006020820190508181036000830152612da881612d6c565b9050919050565b7f4e487b7100000000000000000000000000000000000000000000000000000000600052604160045260246000fd5b7f4e487b7100000000000000000000000000000000000000000000000000000000600052602260045260246000fd5b60006002820490506001821680612e2557607f821691505b602082108103612e3857612e37612dde565b5b50919050565b60008190508160005260206000209050919050565b60006020601f8301049050919050565b600082821b905092915050565b600060088302612ea07fffffffffffffffffffffffffffffffffffffffffffffffffffffffffffffffff82612e63565b612eaa8683612e63565b95508019841693508086168417925050509392505050565b6000819050919050565b6000612ee7612ee2612edd84612820565b612ec2565b612820565b9050919050565b6000819050919050565b612f0183612ecc565b612f15612f0d82612eee565b848454612e70565b825550505050565b600090565b612f2a612f1d565b612f35818484612ef8565b505050565b5b81811015612f5957612f4e600082612f22565b600181019050612f3b565b5050565b601f821115612f9e57612f6f81612e3e565b612f7884612e53565b81016020851015612f87578190505b612f9b612f9385612e53565b830182612f3a565b50505b505050565b600082821c905092915050565b6000612fc160001984600802612fa3565b1980831691505092915050565b6000612fda8383612fb0565b9150826002028217905092915050565b612ff38261293b565b67ffffffffffffffff81111561300c5761300b612daf565b5b6130168254612e0d565b613021828285612f5d565b600060209050601f8311600181146130545760008415613042578287015190505b61304c8582612fce565b8655506130b4565b601f19841661306286612e3e565b60005b8281101561308a57848901518255600182019150602085019450602081019050613065565b868310156130a757848901516130a3601f891682612fb0565b8355505b6001600288020188555050505b505050505050565b7f4f6e6c792061646d696e2063616e2063616c6c20746869732066756e6374696f60008201527f6e00000000000000000000000000000000000000000000000000000000000000602082015250565b6000613118602183612946565b9150613123826130bc565b604082019050919050565b600060208201905081810360008301526131478161310b565b9050919050565b7f52657374617572616e74206e6f742072656769737465726564206f7220616c7260008201527f6561647920636c6f736564000000000000000000000000000000000000000000602082015250565b60006131aa602b83612946565b91506131b58261314e565b604082019050919050565b600060208201905081810360008301526131d98161319d565b9050919050565b600081905092915050565b7f4465706f7369742070656e64696e670000000000000000000000000000000000600082015250565b6000613221600f836131e0565b915061322c826131eb565b600f82019050919050565b600061324282613214565b9150819050919050565b6000815461325981612e0d565b61326381866131e0565b9450600182166000811461327e5760018114613293576132c6565b60ff19831686528115158202860193506132c6565b61329c85612e3e565b60005b838110156132be5781548189015260018201915060208101905061329f565b838801955050505b50505092915050565b60006132db828461324c565b915081905092915050565b7f4465706f73697420697320646f6e650000000000000000000000000000000000600082015250565b600061331c600f83612946565b9150613327826132e6565b602082019050919050565b6000602082019050818103600083015261334b8161330f565b9050919050565b7f416d6f756e742073656e74206d75737420626520657175616c20746f20616d6f60008201527f756e74546f506179000000000000000000000000000000000000000000000000602082015250565b60006133ae602883612946565b91506133b982613352565b604082019050919050565b600060208201905081810360008301526133dd816133a1565b9050919050565b7f4f6e6c792072657374617572616e742063616e2063616c6c207468697320667560008201527f6e6374696f6e0000000000000000000000000000000000000000000000000000602082015250565b6000613440602683612946565b915061344b826133e4565b604082019050919050565b6000602082019050818103600083015261346f81613433565b9050919050565b7f437573746f6d6572206d75737420617070726f76652074686520636c6f73757260008201527f6520666972737400000000000000000000000000000000000000000000000000602082015250565b60006134d2602783612946565b91506134dd82613476565b604082019050919050565b60006020820190508181036000830152613501816134c5565b9050919050565b7f52657374617572616e74206d75737420617070726f76652074686520636c6f7360008201527f7572652066697273740000000000000000000000000000000000000000000000602082015250565b6000613564602983612946565b915061356f82613508565b604082019050919050565b6000602082019050818103600083015261359381613557565b9050919050565b7f507572636861736520697320616c726561647920636c6f736564000000000000600082015250565b60006135d0601a83612946565b91506135db8261359a565b602082019050919050565b600060208201905081810360008301526135ff816135c3565b9050919050565b600060408201905061361b600083018561292c565b6136286020830184612896565b9392505050565b7f4e487b7100000000000000000000000000000000000000000000000000000000600052601160045260246000fd5b600061366982612820565b915061367483612820565b925082820190508082111561368c5761368b61362f565b5b92915050565b6000819050919050565b60006136b76136b26136ad84613692565b612ec2565b612820565b9050919050565b6136c78161369c565b82525050565b60006040820190506136e2600083018561292c565b6136ef60208301846136be565b9392505050565b6000819050919050565b600061371b613716613711846136f6565b612ec2565b612820565b9050919050565b61372b81613700565b82525050565b60006020820190506137466000830184613722565b92915050565b7f546865206f7264657220697320616c726561647920617070726f76656420627960008201527f2072657374617572616e74000000000000000000000000000000000000000000602082015250565b60006137a8602b83612946565b91506137b38261374c565b604082019050919050565b600060208201905081810360008301526137d78161379b565b9050919050565b7f52657374617572616e74206e6f74207265676973746572656400000000000000600082015250565b6000613814601983612946565b915061381f826137de565b602082019050919050565b6000602082019050818103600083015261384381613807565b9050919050565b7f596f75206861766520616e206f72646572206f70656e20696e2074686973207260008201527f657374617572616e740000000000000000000000000000000000000000000000602082015250565b60006138a6602983612946565b91506138b18261384a565b604082019050919050565b600060208201905081810360008301526138d581613899565b9050919050565b60006020820190506138f1600083018461292c565b92915050565b6000815190506139068161282a565b92915050565b6000602082840312156139225761392161275a565b5b6000613930848285016138f7565b91505092915050565b7f4e6f74204d45414c5320696e20796f75722062616c616e636500000000000000600082015250565b600061396f601983612946565b915061397a82613939565b602082019050919050565b6000602082019050818103600083015261399e81613962565b9050919050565b7f52657374617572616e7420616c72656164792072656769737465726564000000600082015250565b60006139db601d83612946565b91506139e6826139a5565b602082019050919050565b60006020820190508181036000830152613a0a816139ce565b9050919050565b7f4d757374206465706f7369742065786163746c79206465706f736974416d6f7560008201527f6e7420746f207265676973746572000000000000000000000000000000000000602082015250565b6000613a6d602e83612946565b9150613a7882613a11565b604082019050919050565b60006020820190508181036000830152613a9c81613a60565b905091905056fea26469706673582212202565b53a6723051eacb72fed4a02308a138f0306392a62121325a488de8f3e2c64736f6c63430008130033",
  "immutableReferences": {},
  "source": "// SPDX-License-Identifier: MIT\r\npragma solidity ^0.8.0;\r\nimport \"./MealToken.sol\";\r\n\r\ncontract OrderAdmin {\r\n    MealToken TokenInstance;\r\n    uint256 public depositAmount;\r\n\r\n    constructor(address _tokenAddress) {\r\n        TokenInstance = MealToken(_tokenAddress);\r\n        admins[msg.sender] = true;\r\n        depositAmount = 0.1 ether;\r\n    }\r\n\r\n    // Estructura para almacenar los detalles de una compra\r\n    struct Purchase {\r\n        address customer;              // Direccin del cliente\r\n        uint256 amountToPay_Fiat;      // Monto a pagar con FIAT\r\n        uint256 amountToPay_Ether;     // Monto a pagar con Ether\r\n        uint256 usedMealsTokens;       // Token Meals utilizados para pagar\r\n        bool isClosed;                 // Indica si la compra est cerrada\r\n        bool isCustomerApproved;       // Indica si el cliente aprob la compra\r\n        bool isRestaurantApproved;     // Indica si el restaurante aprob el cierre\r\n        uint256 mealBonus;\r\n        string status;\r\n    }\r\n\r\n    // Mapping que relaciona direcciones de restaurantes con sus detalles de compra\r\n    mapping(address => mapping( uint256 => Purchase)) public purchases; //restaurante:id:purchase\r\n    mapping(address => mapping(address => uint256)) public activeUserIds; //restaurante:user: open_order_id    \r\n    mapping(address => uint256) public orderIds; //restaurante:last_id\r\n \r\n\r\n    // Mapping que indica si un restaurante est activo o no\r\n    mapping(address => bool) public activeRestaurants;\r\n\r\n    // Gestor de recompensas con token MEAL \r\n    mapping(address => mapping(address => uint256)) public mealRewards; //user:restaurant:number\r\n\r\n    // Mapeo para almacenar el estado de los administradores\r\n    mapping(address => bool) public admins;\r\n\r\n    // Modificador para restringir el acceso a funciones solo al administrador\r\n    modifier onlyAdmin() {\r\n        require(admins[msg.sender], \"Only admin can call this function\");\r\n        _;\r\n    }\r\n\r\n    // Modificador para restringir el acceso a funciones solo al cliente del restaurante especfico\r\n    modifier onlyCustomer() {\r\n        require(activeRestaurants[msg.sender] == false, \"Only customer can call this function\");\r\n        _;\r\n    }\r\n\r\n    // Modificador para restringir el acceso a funciones solo al restaurante especfico\r\n    modifier onlyRestaurant() {\r\n        require(activeRestaurants[msg.sender] == true, \"Only restaurant can call this function\");\r\n        _;\r\n    }\r\n\r\n    // Funcin para asignar o revocar el rol de administrador\r\n    function setAdmin(address _admin, bool _status) external onlyAdmin {\r\n        admins[_admin] = _status;\r\n    }\r\n    \r\n    function registerRestaurant() external payable {\r\n        require(!activeRestaurants[msg.sender], \"Restaurant already registered\");\r\n        require(msg.value == depositAmount, \"Must deposit exactly depositAmount to register\");\r\n        activeRestaurants[msg.sender] = true;\r\n\r\n        emit RestaurantRegistered(msg.sender, depositAmount);\r\n    }\r\n\r\n    // Funcin para desactivar un restaurante y devolver los fondos depositados\r\n    function closeRestaurant(address _restaurant) external onlyAdmin {\r\n        require(activeRestaurants[_restaurant], \"Restaurant not registered or already closed\");\r\n\r\n        activeRestaurants[_restaurant] = false;\r\n\r\n        // Devolver los fondos al restaurante\r\n        payable(_restaurant).transfer(depositAmount);\r\n\r\n        emit RestaurantClosed(_restaurant);\r\n    }\r\n\r\n    // Funcin para desregistrar un restaurante\r\n    function unregisterRestaurant(address _restaurant) external onlyAdmin {\r\n        require(activeRestaurants[_restaurant], \"Restaurant not registered\");\r\n        activeRestaurants[_restaurant] = false;\r\n        emit RestaurantUnregistered(_restaurant);\r\n    }\r\n    \r\n    // Funcin para crear una nueva compra\r\n    function createPurchase(address _restaurant, uint256 _amountFIAT, uint256 _amountEther, uint256 _meals, uint256 _mealBonus) external onlyCustomer(){\r\n        require(activeRestaurants[_restaurant], \"Restaurant not registered\");\r\n        require(activeUserIds[_restaurant][msg.sender] == 0, \"You have an order open in this restaurant\");\r\n        if (_meals >= 0) {\r\n            require(TokenInstance.balanceOf(msg.sender) >= _meals, \"Not MEALS in your balance\");\r\n        }\r\n\r\n        orderIds[_restaurant] += 1;\r\n        uint256 new_id = orderIds[_restaurant];\r\n\r\n        purchases[_restaurant][new_id] = Purchase({\r\n            customer: msg.sender,\r\n            amountToPay_Fiat: _amountFIAT,\r\n            amountToPay_Ether: _amountEther,\r\n            usedMealsTokens: _meals,\r\n            isClosed: false,\r\n            isCustomerApproved: false,\r\n            isRestaurantApproved: false,\r\n            mealBonus:_mealBonus,\r\n            status: 'Deposit pending'\r\n        });\r\n\r\n        activeUserIds[_restaurant][msg.sender] = new_id;\r\n\r\n        // Llamar a la funcin deposit para que el cliente deposite el monto necesario\r\n        emit PurchaseCreated(msg.sender, _restaurant, new_id);\r\n    }\r\n\r\n    // Funcin para que el cliente deposite el monto necesario en el contrato\r\n    function deposit(address _restaurant, uint256 order_id) public payable onlyCustomer() {\r\n        Purchase storage purchase = purchases[_restaurant][order_id];\r\n\r\n        require(purchase.customer != address(0), \"The order id does not exists\");\r\n        require(!purchase.isClosed, \"Your order is already closed\");\r\n        require(purchase.customer == msg.sender,\"You do not order this purchase\");\r\n        require(keccak256(abi.encodePacked(purchase.status)) == keccak256(abi.encodePacked('Deposit pending')), \"Deposit is done\");\r\n        require(msg.value == purchase.amountToPay_Ether, \"Amount sent must be equal to amountToPay\");\r\n\r\n        purchase.status = 'Waiting restaurant aproval';\r\n    }\r\n\r\n    // Funcin para que el restaurante apruebe el cierre\r\n    function approveOrder(uint256 order_id) external onlyRestaurant() {\r\n        Purchase storage purchase = purchases[msg.sender][order_id];\r\n\r\n        require(purchase.customer != address(0), \"The order id does not exists\");\r\n        require(!purchase.isClosed, \"Your order is already closed\");\r\n        require(!purchase.isRestaurantApproved, \"The order is already approved by restaurant\");\r\n\r\n        purchase.isRestaurantApproved = true;\r\n        purchase.status = 'Waiting customer aproval';\r\n        \r\n        emit PurchaseApprovedByRestaurant(msg.sender,order_id);\r\n    }\r\n\r\n    // Funcin para que el cliente apruebe la compra\r\n    function approvePurchase(address _restaurant, uint256 order_id) external onlyCustomer() {\r\n        Purchase storage purchase = purchases[_restaurant][order_id];\r\n\r\n        require(purchase.customer != address(0), \"The order id does not exists\");\r\n        require(!purchase.isClosed, \"Your order is already closed\");\r\n        require(purchase.customer == msg.sender,\"You do not order this purchase\");\r\n        require(!purchase.isCustomerApproved, \"The order is already approved by customer\");\r\n\r\n        purchase.isCustomerApproved = true;\r\n        purchase.status = 'Purchase ready to close';\r\n        emit PurchaseApprovedByCustomer(msg.sender, _restaurant, order_id);\r\n    }\r\n\r\n    // Funcin para cerrar la compra y pagar al restaurante\r\n    function closeAndPay(uint256 order_id) external onlyRestaurant() {\r\n        Purchase storage purchase = purchases[msg.sender][order_id];\r\n        require(purchase.customer != address(0), \"The order id does not exists\");\r\n        require(purchase.isCustomerApproved, \"Customer must approve the closure first\");\r\n        require(purchase.isRestaurantApproved, \"Restaurant must approve the closure first\");\r\n        require(!purchase.isClosed, \"Purchase is already closed\");\r\n\r\n        purchase.isClosed = true;\r\n        purchase.status = 'Closed';\r\n\r\n        payable(msg.sender).transfer(purchase.amountToPay_Ether);\r\n\r\n        activeUserIds[msg.sender][purchase.customer] = 0;\r\n\r\n        // Quemado de tokens Meals\r\n        if (purchase.usedMealsTokens != 0) {\r\n            TokenInstance.burn(purchase.customer, purchase.usedMealsTokens);     \r\n        }\r\n        \r\n        // Actualizacin de rewards\r\n        mealRewards[purchase.customer][msg.sender] += purchase.mealBonus;\r\n\r\n        // Envo de 10 en 10 tokens\r\n        if (mealRewards[purchase.customer][msg.sender] >= 10*10**18) {\r\n            TokenInstance.mint(purchase.customer, 10*10**18); // Mint 10 tokens to the customer\r\n            mealRewards[purchase.customer][msg.sender] = 0;            \r\n            emit TokensMinted(purchase.customer, 10);\r\n        }\r\n\r\n        //Eventos\r\n        emit PurchaseClosed(purchase.customer, msg.sender, order_id);\r\n        emit MealRewardsUpdated(purchase.customer, mealRewards[purchase.customer][msg.sender]);\r\n        \r\n\r\n    }\r\n\r\n    // Funcin view para verificar si un restaurante est activo\r\n    function isRestaurantActive(address _restaurant) external view returns (bool) {\r\n        return activeRestaurants[_restaurant];\r\n    }\r\n\r\n    // Funcin view para obtener las recompensas de tokens MEAL para un restaurante\r\n    function getMealRewards(address _restaurant) external view returns (uint256) {\r\n        return mealRewards[msg.sender][_restaurant];\r\n    }\r\n\r\n    // Funcin view para verificar si una direccin es administrador\r\n    function isAdmin(address _address) external view returns (bool) {\r\n        return admins[_address];\r\n    }\r\n\r\n    // Funcin view para ver el saldo de Ether del contrato\r\n    function getContractBalance() external view returns (uint256) {\r\n        return address(this).balance;\r\n    }\r\n\r\n    event RestaurantRegistered(address indexed restaurant, uint256 depositAmount);\r\n    event RestaurantUnregistered(address indexed restaurant);\r\n    event RestaurantClosed(address indexed restaurant);\r\n    event PurchaseCreated(address indexed customer, address indexed restaurant, uint256 orderId);\r\n    event PurchaseClosed(address indexed customer, address indexed restaurant, uint256 orderId);\r\n    event PurchaseApprovedByCustomer(address indexed customer, address indexed restaurant, uint256 orderId);\r\n    event PurchaseApprovedByRestaurant(address indexed restaurant, uint256 orderId);\r\n    event MealRewardsUpdated(address indexed customer, uint256 newRewardsBalance);\r\n    event TokensMinted(address indexed customer, uint256 amount);\r\n}\r\n",
  "sourcePath": "C:\\Users\\David\\Desktop\\tfm\\dapp-tfm\\v0\\contracts\\OrderAdmin.sol",
  "compiler": {
    "name": "solc",
    "version": "0.8.19+commit.7dd6d404.Emscripten.clang"
  },
  "schemaVersion": "3.4.13",
  "updatedAt": "2023-09-16T11:25:27.072Z",
  "networkType": "ethereum",
  "devdoc": {
    "kind": "dev",
    "methods": {},
    "version": 1
  },
  "userdoc": {
    "kind": "user",
    "methods": {},
    "version": 1
  }
}